{"abi":[{"type":"constructor","inputs":[{"name":"_governanceToken","type":"address","internalType":"address"}],"stateMutability":"nonpayable"},{"type":"function","name":"FUNDING_CAP","inputs":[],"outputs":[{"name":"","type":"uint256","internalType":"uint256"}],"stateMutability":"view"},{"type":"function","name":"calculateGTReward","inputs":[{"name":"proposalId","type":"uint256","internalType":"uint256"},{"name":"contributionAmount","type":"uint256","internalType":"uint256"}],"outputs":[{"name":"","type":"uint256","internalType":"uint256"}],"stateMutability":"view"},{"type":"function","name":"createProposal","inputs":[],"outputs":[],"stateMutability":"nonpayable"},{"type":"function","name":"fundProposal","inputs":[{"name":"proposalId","type":"uint256","internalType":"uint256"}],"outputs":[],"stateMutability":"payable"},{"type":"function","name":"governanceToken","inputs":[],"outputs":[{"name":"","type":"address","internalType":"contract GovernanceToken"}],"stateMutability":"view"},{"type":"function","name":"owner","inputs":[],"outputs":[{"name":"","type":"address","internalType":"address"}],"stateMutability":"view"},{"type":"function","name":"proposalBalances","inputs":[{"name":"","type":"uint256","internalType":"uint256"}],"outputs":[{"name":"","type":"uint256","internalType":"uint256"}],"stateMutability":"view"},{"type":"function","name":"proposalCounter","inputs":[],"outputs":[{"name":"","type":"uint256","internalType":"uint256"}],"stateMutability":"view"},{"type":"function","name":"proposalGTRewards","inputs":[{"name":"","type":"uint256","internalType":"uint256"}],"outputs":[{"name":"","type":"uint256","internalType":"uint256"}],"stateMutability":"view"},{"type":"function","name":"renounceOwnership","inputs":[],"outputs":[],"stateMutability":"nonpayable"},{"type":"function","name":"transferOwnership","inputs":[{"name":"newOwner","type":"address","internalType":"address"}],"outputs":[],"stateMutability":"nonpayable"},{"type":"function","name":"userContributions","inputs":[{"name":"","type":"uint256","internalType":"uint256"},{"name":"","type":"address","internalType":"address"}],"outputs":[{"name":"","type":"uint256","internalType":"uint256"}],"stateMutability":"view"},{"type":"function","name":"withdraw","inputs":[{"name":"proposalId","type":"uint256","internalType":"uint256"},{"name":"amount","type":"uint256","internalType":"uint256"}],"outputs":[],"stateMutability":"nonpayable"},{"type":"event","name":"GTRewardIssued","inputs":[{"name":"proposalId","type":"uint256","indexed":true,"internalType":"uint256"},{"name":"contributor","type":"address","indexed":true,"internalType":"address"},{"name":"amount","type":"uint256","indexed":false,"internalType":"uint256"}],"anonymous":false},{"type":"event","name":"OwnershipTransferred","inputs":[{"name":"previousOwner","type":"address","indexed":true,"internalType":"address"},{"name":"newOwner","type":"address","indexed":true,"internalType":"address"}],"anonymous":false},{"type":"event","name":"ProposalCreated","inputs":[{"name":"proposalId","type":"uint256","indexed":true,"internalType":"uint256"}],"anonymous":false},{"type":"event","name":"Withdrawn","inputs":[{"name":"proposalId","type":"uint256","indexed":true,"internalType":"uint256"},{"name":"contributor","type":"address","indexed":true,"internalType":"address"},{"name":"amount","type":"uint256","indexed":false,"internalType":"uint256"}],"anonymous":false},{"type":"error","name":"OwnableInvalidOwner","inputs":[{"name":"owner","type":"address","internalType":"address"}]},{"type":"error","name":"OwnableUnauthorizedAccount","inputs":[{"name":"account","type":"address","internalType":"address"}]},{"type":"error","name":"ReentrancyGuardReentrantCall","inputs":[]}],"bytecode":{"object":"0x608060405234801561000f575f80fd5b5060405161097b38038061097b83398101604081905261002e916100d5565b338061005357604051631e4fbdf760e01b81525f600482015260240160405180910390fd5b61005c81610086565b5060018055600580546001600160a01b0319166001600160a01b0392909216919091179055610102565b5f80546001600160a01b038381166001600160a01b0319831681178455604051919092169283917f8be0079c531659141344cd1fd0a4f28419497f9722a3daafe3b4186f6b6457e09190a35050565b5f602082840312156100e5575f80fd5b81516001600160a01b03811681146100fb575f80fd5b9392505050565b61086c8061010f5f395ff3fe6080604052600436106100bf575f3560e01c80638da5cb5b1161007c578063ed54890d11610057578063ed54890d146101dc578063ed79f43414610212578063f2fde38b1461023d578063f96dae0a1461025c575f80fd5b80638da5cb5b1461016e578063a763742b1461019e578063e210f4b5146101c9575f80fd5b80630c0512e9146100c3578063180fd87f146100eb5780633bc64d2b14610101578063441a3e701461011c57806367570bc81461013b578063715018a61461015a575b5f80fd5b3480156100ce575f80fd5b506100d860065481565b6040519081526020015b60405180910390f35b3480156100f6575f80fd5b506100ff61027b565b005b34801561010c575f80fd5b506100d8678ac7230489e8000081565b348015610127575f80fd5b506100ff610136366004610712565b6102c7565b348015610146575f80fd5b506100d8610155366004610712565b6103fa565b348015610165575f80fd5b506100ff610444565b348015610179575f80fd5b505f546001600160a01b03165b6040516001600160a01b0390911681526020016100e2565b3480156101a9575f80fd5b506100d86101b8366004610732565b60046020525f908152604090205481565b6100ff6101d7366004610732565b610457565b3480156101e7575f80fd5b506100d86101f6366004610764565b600260209081525f928352604080842090915290825290205481565b34801561021d575f80fd5b506100d861022c366004610732565b60036020525f908152604090205481565b348015610248575f80fd5b506100ff61025736600461078e565b610633565b348015610267575f80fd5b50600554610186906001600160a01b031681565b61028361066d565b60068054905f610292836107c2565b909155505060065460405181907fc2c021f5d73c63c481d336fbbafec58f694fc45095f00b02d2deb8cca59afe07905f90a250565b6102cf610699565b5f82815260026020908152604080832033845290915290205481111561033c5760405162461bcd60e51b815260206004820152601e60248201527f496e73756666696369656e742066756e647320746f207769746864726177000060448201526064015b60405180910390fd5b5f828152600260209081526040808320338452909152812080548392906103649084906107da565b90915550505f82815260036020526040812080548392906103869084906107da565b9091555050604051339082156108fc029083905f818181858888f193505050501580156103b5573d5f803e3d5ffd5b50604051818152339083907fcf7d23a3cbe4e8b36ff82fd1b05b1b17373dc7804b4ebbd6e2356716ef2023729060200160405180910390a36103f660018055565b5050565b5f828152600360209081526040808320546004909252822054818303610424575f9250505061043e565b8161042f82866107ed565b6104399190610804565b925050505b92915050565b61044c61066d565b6104555f6106c3565b565b61045f610699565b5f34116104a65760405162461bcd60e51b8152602060048201526015602482015274135d5cdd081cd95b9908115512081d1bc8199d5b99605a1b6044820152606401610333565b5f81815260036020526040902054678ac7230489e80000906104c9903490610823565b111561050e5760405162461bcd60e51b8152602060048201526014602482015273119d5b991a5b99c818d85c08195e18d95959195960621b6044820152606401610333565b5f81815260026020908152604080832033845290915281208054349290610536908490610823565b90915550505f8181526003602052604081208054349290610558908490610823565b909155505f905061056982346103fa565b90508060045f8481526020019081526020015f205f82825461058b9190610823565b90915550506005546040516340c10f1960e01b8152336004820152602481018390526001600160a01b03909116906340c10f19906044015f604051808303815f87803b1580156105d9575f80fd5b505af11580156105eb573d5f803e3d5ffd5b50506040518381523392508491507fec160b55efe47fa838830c7963524595d4daa1c7c0d56b61d03cbf761ebe7fd99060200160405180910390a35061063060018055565b50565b61063b61066d565b6001600160a01b03811661066457604051631e4fbdf760e01b81525f6004820152602401610333565b610630816106c3565b5f546001600160a01b031633146104555760405163118cdaa760e01b8152336004820152602401610333565b6002600154036106bc57604051633ee5aeb560e01b815260040160405180910390fd5b6002600155565b5f80546001600160a01b038381166001600160a01b0319831681178455604051919092169283917f8be0079c531659141344cd1fd0a4f28419497f9722a3daafe3b4186f6b6457e09190a35050565b5f8060408385031215610723575f80fd5b50508035926020909101359150565b5f60208284031215610742575f80fd5b5035919050565b80356001600160a01b038116811461075f575f80fd5b919050565b5f8060408385031215610775575f80fd5b8235915061078560208401610749565b90509250929050565b5f6020828403121561079e575f80fd5b6107a782610749565b9392505050565b634e487b7160e01b5f52601160045260245ffd5b5f600182016107d3576107d36107ae565b5060010190565b8181038181111561043e5761043e6107ae565b808202811582820484141761043e5761043e6107ae565b5f8261081e57634e487b7160e01b5f52601260045260245ffd5b500490565b8082018082111561043e5761043e6107ae56fea264697066735822122087ddb129ef4ca6fe9745681fb8c08d5ec874e85cdb4207a47ac51c88372c969f64736f6c63430008180033","linkReferences":{}},"methodIdentifiers":{"FUNDING_CAP()":"3bc64d2b","calculateGTReward(uint256,uint256)":"67570bc8","createProposal()":"180fd87f","fundProposal(uint256)":"e210f4b5","governanceToken()":"f96dae0a","owner()":"8da5cb5b","proposalBalances(uint256)":"ed79f434","proposalCounter()":"0c0512e9","proposalGTRewards(uint256)":"a763742b","renounceOwnership()":"715018a6","transferOwnership(address)":"f2fde38b","userContributions(uint256,address)":"ed54890d","withdraw(uint256,uint256)":"441a3e70"},"id":33}