{
  "abi": [
    {
      "type": "constructor",
      "inputs": [
        {
          "name": "_governanceToken",
          "type": "address",
          "internalType": "contract GovernanceToken"
        },
        {
          "name": "_taikoToken",
          "type": "address",
          "internalType": "contract IERC20"
        },
        {
          "name": "_quorum",
          "type": "uint256",
          "internalType": "uint256"
        },
        {
          "name": "_voteThreshold",
          "type": "uint256",
          "internalType": "uint256"
        }
      ],
      "stateMutability": "nonpayable"
    },
    {
      "type": "function",
      "name": "createProposal",
      "inputs": [
        {
          "name": "title",
          "type": "string",
          "internalType": "string"
        },
        {
          "name": "description",
          "type": "string",
          "internalType": "string"
        },
        {
          "name": "duration",
          "type": "uint256",
          "internalType": "uint256"
        },
        {
          "name": "category",
          "type": "uint8",
          "internalType": "enum ProposalVoting.Category"
        },
        {
          "name": "fundingTarget",
          "type": "uint256",
          "internalType": "uint256"
        }
      ],
      "outputs": [],
      "stateMutability": "nonpayable"
    },
    {
      "type": "function",
      "name": "delegateVote",
      "inputs": [
        {
          "name": "delegatee",
          "type": "address",
          "internalType": "address"
        }
      ],
      "outputs": [],
      "stateMutability": "nonpayable"
    },
    {
      "type": "function",
      "name": "delegates",
      "inputs": [
        {
          "name": "",
          "type": "address",
          "internalType": "address"
        }
      ],
      "outputs": [
        {
          "name": "",
          "type": "address",
          "internalType": "address"
        }
      ],
      "stateMutability": "view"
    },
    {
      "type": "function",
      "name": "distributeRewards",
      "inputs": [
        {
          "name": "proposalId",
          "type": "uint256",
          "internalType": "uint256"
        }
      ],
      "outputs": [],
      "stateMutability": "nonpayable"
    },
    {
      "type": "function",
      "name": "executeProposal",
      "inputs": [
        {
          "name": "proposalId",
          "type": "uint256",
          "internalType": "uint256"
        }
      ],
      "outputs": [],
      "stateMutability": "nonpayable"
    },
    {
      "type": "function",
      "name": "finalizeProposal",
      "inputs": [
        {
          "name": "proposalId",
          "type": "uint256",
          "internalType": "uint256"
        }
      ],
      "outputs": [],
      "stateMutability": "nonpayable"
    },
    {
      "type": "function",
      "name": "getProposal",
      "inputs": [
        {
          "name": "proposalId",
          "type": "uint256",
          "internalType": "uint256"
        }
      ],
      "outputs": [
        {
          "name": "",
          "type": "uint256",
          "internalType": "uint256"
        },
        {
          "name": "",
          "type": "string",
          "internalType": "string"
        },
        {
          "name": "",
          "type": "string",
          "internalType": "string"
        },
        {
          "name": "",
          "type": "uint256",
          "internalType": "uint256"
        },
        {
          "name": "",
          "type": "uint256",
          "internalType": "uint256"
        },
        {
          "name": "",
          "type": "uint8",
          "internalType": "enum ProposalVoting.Category"
        },
        {
          "name": "",
          "type": "uint256",
          "internalType": "uint256"
        },
        {
          "name": "",
          "type": "bool",
          "internalType": "bool"
        },
        {
          "name": "",
          "type": "bool",
          "internalType": "bool"
        }
      ],
      "stateMutability": "view"
    },
    {
      "type": "function",
      "name": "governanceToken",
      "inputs": [],
      "outputs": [
        {
          "name": "",
          "type": "address",
          "internalType": "contract GovernanceToken"
        }
      ],
      "stateMutability": "view"
    },
    {
      "type": "function",
      "name": "gracePeriod",
      "inputs": [],
      "outputs": [
        {
          "name": "",
          "type": "uint256",
          "internalType": "uint256"
        }
      ],
      "stateMutability": "view"
    },
    {
      "type": "function",
      "name": "hasVoted",
      "inputs": [
        {
          "name": "",
          "type": "uint256",
          "internalType": "uint256"
        },
        {
          "name": "",
          "type": "address",
          "internalType": "address"
        }
      ],
      "outputs": [
        {
          "name": "",
          "type": "bool",
          "internalType": "bool"
        }
      ],
      "stateMutability": "view"
    },
    {
      "type": "function",
      "name": "proposalCount",
      "inputs": [],
      "outputs": [
        {
          "name": "",
          "type": "uint256",
          "internalType": "uint256"
        }
      ],
      "stateMutability": "view"
    },
    {
      "type": "function",
      "name": "proposals",
      "inputs": [
        {
          "name": "",
          "type": "uint256",
          "internalType": "uint256"
        }
      ],
      "outputs": [
        {
          "name": "id",
          "type": "uint256",
          "internalType": "uint256"
        },
        {
          "name": "title",
          "type": "string",
          "internalType": "string"
        },
        {
          "name": "description",
          "type": "string",
          "internalType": "string"
        },
        {
          "name": "voteCount",
          "type": "uint256",
          "internalType": "uint256"
        },
        {
          "name": "deadline",
          "type": "uint256",
          "internalType": "uint256"
        },
        {
          "name": "category",
          "type": "uint8",
          "internalType": "enum ProposalVoting.Category"
        },
        {
          "name": "fundingTarget",
          "type": "uint256",
          "internalType": "uint256"
        },
        {
          "name": "exists",
          "type": "bool",
          "internalType": "bool"
        },
        {
          "name": "isActive",
          "type": "bool",
          "internalType": "bool"
        },
        {
          "name": "isSuccessful",
          "type": "bool",
          "internalType": "bool"
        }
      ],
      "stateMutability": "view"
    },
    {
      "type": "function",
      "name": "quorum",
      "inputs": [],
      "outputs": [
        {
          "name": "",
          "type": "uint256",
          "internalType": "uint256"
        }
      ],
      "stateMutability": "view"
    },
    {
      "type": "function",
      "name": "rewardPercentage",
      "inputs": [],
      "outputs": [
        {
          "name": "",
          "type": "uint256",
          "internalType": "uint256"
        }
      ],
      "stateMutability": "view"
    },
    {
      "type": "function",
      "name": "setTargetContract",
      "inputs": [
        {
          "name": "_targetContract",
          "type": "address",
          "internalType": "address"
        }
      ],
      "outputs": [],
      "stateMutability": "nonpayable"
    },
    {
      "type": "function",
      "name": "taikoToken",
      "inputs": [],
      "outputs": [
        {
          "name": "",
          "type": "address",
          "internalType": "contract IERC20"
        }
      ],
      "stateMutability": "view"
    },
    {
      "type": "function",
      "name": "targetContract",
      "inputs": [],
      "outputs": [
        {
          "name": "",
          "type": "address",
          "internalType": "address"
        }
      ],
      "stateMutability": "view"
    },
    {
      "type": "function",
      "name": "voteOnProposal",
      "inputs": [
        {
          "name": "proposalId",
          "type": "uint256",
          "internalType": "uint256"
        }
      ],
      "outputs": [],
      "stateMutability": "nonpayable"
    },
    {
      "type": "function",
      "name": "voteThreshold",
      "inputs": [],
      "outputs": [
        {
          "name": "",
          "type": "uint256",
          "internalType": "uint256"
        }
      ],
      "stateMutability": "view"
    },
    {
      "type": "event",
      "name": "DelegateSet",
      "inputs": [
        {
          "name": "delegator",
          "type": "address",
          "indexed": true,
          "internalType": "address"
        },
        {
          "name": "delegatee",
          "type": "address",
          "indexed": true,
          "internalType": "address"
        }
      ],
      "anonymous": false
    },
    {
      "type": "event",
      "name": "ProposalCreated",
      "inputs": [
        {
          "name": "proposalId",
          "type": "uint256",
          "indexed": true,
          "internalType": "uint256"
        },
        {
          "name": "title",
          "type": "string",
          "indexed": false,
          "internalType": "string"
        },
        {
          "name": "description",
          "type": "string",
          "indexed": false,
          "internalType": "string"
        },
        {
          "name": "deadline",
          "type": "uint256",
          "indexed": false,
          "internalType": "uint256"
        },
        {
          "name": "fundingTarget",
          "type": "uint256",
          "indexed": false,
          "internalType": "uint256"
        }
      ],
      "anonymous": false
    },
    {
      "type": "event",
      "name": "ProposalFinalized",
      "inputs": [
        {
          "name": "proposalId",
          "type": "uint256",
          "indexed": true,
          "internalType": "uint256"
        },
        {
          "name": "isSuccessful",
          "type": "bool",
          "indexed": false,
          "internalType": "bool"
        }
      ],
      "anonymous": false
    },
    {
      "type": "event",
      "name": "VotedOnProposal",
      "inputs": [
        {
          "name": "proposalId",
          "type": "uint256",
          "indexed": true,
          "internalType": "uint256"
        },
        {
          "name": "voter",
          "type": "address",
          "indexed": true,
          "internalType": "address"
        }
      ],
      "anonymous": false
    }
  ],
  "bytecode": {
    "object": "0x608060405262093a80600855600a60095534801561001b575f80fd5b5060405161160138038061160183398101604081905261003a9161008e565b5f80546001600160a01b039586166001600160a01b03199182161790915560018054949095169316929092179092556006919091556007556100d3565b6001600160a01b038116811461008b575f80fd5b50565b5f805f80608085870312156100a1575f80fd5b84516100ac81610077565b60208601519094506100bd81610077565b6040860151606090960151949790965092505050565b611521806100e05f395ff3fe608060405234801561000f575f80fd5b506004361061011c575f3560e01c806359974e38116100a9578063b31e1d4d1161006e578063b31e1d4d146102a5578063bd90df70146102b8578063c7f758a8146102cb578063da35c664146102f3578063f96dae0a146102fc575f80fd5b806359974e38146102505780638b68c4a914610263578063a06db7dc14610276578063a0a018fe1461027f578063add68edc14610292575f80fd5b806347fc822f116100ef57806347fc822f146101bb5780634fe437d5146101eb57806352d472eb146101f45780635652077c146101fd578063587cde1e14610210575f80fd5b8063013cf08b146101205780630d61b519146101525780631703a01814610167578063438596321461017e575b5f80fd5b61013361012e366004610fb1565b61030e565b6040516101499a9998979695949392919061103f565b60405180910390f35b610165610160366004610fb1565b610474565b005b61017060065481565b604051908152602001610149565b6101ab61018c3660046110cf565b600460209081525f928352604080842090915290825290205460ff1681565b6040519015158152602001610149565b6101656101c93660046110f9565b600a80546001600160a01b0319166001600160a01b0392909216919091179055565b61017060075481565b61017060095481565b61016561020b366004610fb1565b61057c565b61023861021e3660046110f9565b60056020525f90815260409020546001600160a01b031681565b6040516001600160a01b039091168152602001610149565b61016561025e366004610fb1565b610783565b600154610238906001600160a01b031681565b61017060085481565b61016561028d3660046111b6565b6108df565b6101656102a0366004610fb1565b610a76565b6101656102b33660046110f9565b610d47565b600a54610238906001600160a01b031681565b6102de6102d9366004610fb1565b610df5565b6040516101499998979695949392919061123b565b61017060035481565b5f54610238906001600160a01b031681565b60026020525f90815260409020805460018201805491929161032f906112a7565b80601f016020809104026020016040519081016040528092919081815260200182805461035b906112a7565b80156103a65780601f1061037d576101008083540402835291602001916103a6565b820191905f5260205f20905b81548152906001019060200180831161038957829003601f168201915b5050505050908060020180546103bb906112a7565b80601f01602080910402602001604051908101604052809291908181526020018280546103e7906112a7565b80156104325780601f1061040957610100808354040283529160200191610432565b820191905f5260205f20905b81548152906001019060200180831161041557829003601f168201915b50505060038401546004850154600586015460068701546007909701549596929591945060ff908116935081811691610100810482169162010000909104168a565b5f818152600260205260409020600781015462010000900460ff166104e05760405162461bcd60e51b815260206004820152601760248201527f50726f706f73616c206e6f74207375636365737366756c00000000000000000060448201526064015b60405180910390fd5b600a5460068201546040515f926001600160a01b031691908381818185875af1925050503d805f811461052e576040519150601f19603f3d011682016040523d82523d5f602084013e610533565b606091505b50509050806105775760405162461bcd60e51b815260206004820152601060248201526f115e1958dd5d1a5bdb8819985a5b195960821b60448201526064016104d7565b505050565b5f818152600260205260409020600781015460ff166105ad5760405162461bcd60e51b81526004016104d7906112df565b80600401544210156105fc5760405162461bcd60e51b815260206004820152601860248201527750726f706f73616c206973207374696c6c2061637469766560401b60448201526064016104d7565b60078101805461ff00191690556006546003820154108015906107215750600154604080516318160ddd60e01b815290516064926001600160a01b0316916318160ddd9160048083019260209291908290030181865afa158015610662573d5f803e3d5ffd5b505050506040513d601f19601f820116820180604052508101906106869190611316565b5f8054906101000a90046001600160a01b03166001600160a01b03166318160ddd6040518163ffffffff1660e01b8152600401602060405180830381865afa1580156106d4573d5f803e3d5ffd5b505050506040513d601f19601f820116820180604052508101906106f89190611316565b6107029190611341565b60075461070f919061135a565b6107199190611371565b816003015410155b1561073a5760078101805462ff00001916620100001790555b60078101546040516201000090910460ff161515815282907fb5ac567fcf1b069e0235e4f16734625c6cf54c1b40517fd9eb85517f6e1265a79060200160405180910390a25050565b5f8181526002602052604090206007810154610100900460ff16156107e55760405162461bcd60e51b815260206004820152601860248201527750726f706f73616c206973207374696c6c2061637469766560401b60448201526064016104d7565b600781015462010000900460ff1661083f5760405162461bcd60e51b815260206004820152601b60248201527f50726f706f73616c20776173206e6f74207375636365737366756c000000000060448201526064016104d7565b5f60646009548360030154610854919061135a565b61085e9190611371565b90505f5b6003548110156108d9575f80546040516340c10f1960e01b815260048101839052602481018590526001600160a01b03909116906340c10f19906044015f604051808303815f87803b1580156108b6575f80fd5b505af11580156108c8573d5f803e3d5ffd5b505060019093019250610862915050565b50505050565b60038054905f6108ee83611390565b909155505f90506108ff8442611341565b905060405180610140016040528060035481526020018781526020018681526020015f815260200182815260200184600281111561093f5761093f61100b565b8152602080820185905260016040808401829052606084018290525f60809094018490526003548452600283529092208351815590830151909182019061098690826113f3565b506040820151600282019061099b90826113f3565b50606082015160038201556080820151600482015560a082015160058201805460ff191660018360028111156109d3576109d361100b565b021790555060c0820151600682015560e082015160079091018054610100808501516101209095015161ffff1990921693151561ff001916939093179315159092029290921762ff0000191662010000911515919091021790556003546040517fd6b0b08c4ffc17964758389955af67e78f9c97140393526749d4994031e62ef290610a669089908990869088906114b3565b60405180910390a2505050505050565b5f818152600260205260409020600781015460ff16610aa75760405162461bcd60e51b81526004016104d7906112df565b6007810154610100900460ff16610af95760405162461bcd60e51b815260206004820152601660248201527550726f706f73616c206973206e6f742061637469766560501b60448201526064016104d7565b335f818152600560205260409020546001600160a01b031615610b305750335f908152600560205260409020546001600160a01b03165b5f8381526004602090815260408083206001600160a01b038516845290915290205460ff1615610ba25760405162461bcd60e51b815260206004820152601e60248201527f416c726561647920766f746564206f6e20746869732070726f706f73616c000060448201526064016104d7565b5f80546040516370a0823160e01b81526001600160a01b038481166004830152909116906370a0823190602401602060405180830381865afa158015610bea573d5f803e3d5ffd5b505050506040513d601f19601f82011682018060405250810190610c0e9190611316565b6001546040516370a0823160e01b81526001600160a01b0385811660048301529293505f92909116906370a0823190602401602060405180830381865afa158015610c5b573d5f803e3d5ffd5b505050506040513d601f19601f82011682018060405250810190610c7f9190611316565b90505f610c8c8284611341565b90505f8111610cd15760405162461bcd60e51b81526020600482015260116024820152704e6f20746f6b656e7320746f20766f746560781b60448201526064016104d7565b80856003015f828254610ce49190611341565b90915550505f8681526004602090815260408083206001600160a01b0388168085529252808320805460ff1916600117905551909188917f25d957483ed67f76283d577f8a5c411dd39b6e222740cb568c142ca285a761439190a3505050505050565b336001600160a01b03821603610d9f5760405162461bcd60e51b815260206004820152601b60248201527f43616e6e6f742064656c656761746520746f20796f757273656c66000000000060448201526064016104d7565b335f8181526005602052604080822080546001600160a01b0319166001600160a01b03861690811790915590519092917f6ee10e9ed4d6ce9742703a498707862f4b00f1396a87195eb93267b3d798398191a350565b5f8181526002602052604081206007810154606091829184918291829182918291829160ff16610e375760405162461bcd60e51b81526004016104d7906112df565b805460038201546004830154600584015460068501546007860154600187018054909560028901959094909360ff918216939092610100820483169262010000909204909116908890610e89906112a7565b80601f0160208091040260200160405190810160405280929190818152602001828054610eb5906112a7565b8015610f005780601f10610ed757610100808354040283529160200191610f00565b820191905f5260205f20905b815481529060010190602001808311610ee357829003601f168201915b50505050509750868054610f13906112a7565b80601f0160208091040260200160405190810160405280929190818152602001828054610f3f906112a7565b8015610f8a5780601f10610f6157610100808354040283529160200191610f8a565b820191905f5260205f20905b815481529060010190602001808311610f6d57829003601f168201915b50505050509650995099509950995099509950995099509950509193959799909294969850565b5f60208284031215610fc1575f80fd5b5035919050565b5f81518084525f5b81811015610fec57602081850181015186830182015201610fd0565b505f602082860101526020601f19601f83011685010191505092915050565b634e487b7160e01b5f52602160045260245ffd5b6003811061103b57634e487b7160e01b5f52602160045260245ffd5b9052565b5f6101408c83528060208401526110588184018d610fc8565b9050828103604084015261106c818c610fc8565b91505088606083015287608083015261108860a083018861101f565b60c082019590955292151560e08401529015156101008301521515610120909101529695505050505050565b80356001600160a01b03811681146110ca575f80fd5b919050565b5f80604083850312156110e0575f80fd5b823591506110f0602084016110b4565b90509250929050565b5f60208284031215611109575f80fd5b611112826110b4565b9392505050565b634e487b7160e01b5f52604160045260245ffd5b5f82601f83011261113c575f80fd5b813567ffffffffffffffff8082111561115757611157611119565b604051601f8301601f19908116603f0116810190828211818310171561117f5761117f611119565b81604052838152866020858801011115611197575f80fd5b836020870160208301375f602085830101528094505050505092915050565b5f805f805f60a086880312156111ca575f80fd5b853567ffffffffffffffff808211156111e1575f80fd5b6111ed89838a0161112d565b96506020880135915080821115611202575f80fd5b5061120f8882890161112d565b9450506040860135925060608601356003811061122a575f80fd5b949793965091946080013592915050565b5f6101208b83528060208401526112548184018c610fc8565b90508281036040840152611268818b610fc8565b91505087606083015286608083015261128460a083018761101f565b60c082019490945291151560e08301521515610100909101529695505050505050565b600181811c908216806112bb57607f821691505b6020821081036112d957634e487b7160e01b5f52602260045260245ffd5b50919050565b60208082526017908201527f50726f706f73616c20646f6573206e6f74206578697374000000000000000000604082015260600190565b5f60208284031215611326575f80fd5b5051919050565b634e487b7160e01b5f52601160045260245ffd5b808201808211156113545761135461132d565b92915050565b80820281158282048414176113545761135461132d565b5f8261138b57634e487b7160e01b5f52601260045260245ffd5b500490565b5f600182016113a1576113a161132d565b5060010190565b601f82111561057757805f5260205f20601f840160051c810160208510156113cd5750805b601f840160051c820191505b818110156113ec575f81556001016113d9565b5050505050565b815167ffffffffffffffff81111561140d5761140d611119565b6114218161141b84546112a7565b846113a8565b602080601f831160018114611454575f841561143d5750858301515b5f19600386901b1c1916600185901b1785556114ab565b5f85815260208120601f198616915b8281101561148257888601518255948401946001909101908401611463565b508582101561149f57878501515f19600388901b60f8161c191681555b505060018460011b0185555b505050505050565b608081525f6114c56080830187610fc8565b82810360208401526114d78187610fc8565b60408401959095525050606001529291505056fea26469706673582212203e2ac6cae70c64aa719f4f8bea3546e44a027867dbcbb1c108582790c84be96e64736f6c63430008180033",
    "linkReferences": {}
  },
  "methodIdentifiers": {
    "createProposal(string,string,uint256,uint8,uint256)": "a0a018fe",
    "delegateVote(address)": "b31e1d4d",
    "delegates(address)": "587cde1e",
    "distributeRewards(uint256)": "59974e38",
    "executeProposal(uint256)": "0d61b519",
    "finalizeProposal(uint256)": "5652077c",
    "getProposal(uint256)": "c7f758a8",
    "governanceToken()": "f96dae0a",
    "gracePeriod()": "a06db7dc",
    "hasVoted(uint256,address)": "43859632",
    "proposalCount()": "da35c664",
    "proposals(uint256)": "013cf08b",
    "quorum()": "1703a018",
    "rewardPercentage()": "52d472eb",
    "setTargetContract(address)": "47fc822f",
    "taikoToken()": "8b68c4a9",
    "targetContract()": "bd90df70",
    "voteOnProposal(uint256)": "add68edc",
    "voteThreshold()": "4fe437d5"
  },
  "id": 36
}